:02000002B0004C
:1040000000400B00EC520B00000006000C00050203
:084010000401A00F00000000F4
:04401800FC4F0B004E
:10401C0009480A49884208B505D0094A824202D0AB
:10402C00121A00F033FF0748074A0021121A00F059
:10403C003BFF014808BD00BF48E6032058520B0067
:10404C00B4E60320B4E60320EDE7032070B5074E79
:10405C00074C00F0FDFDA41BA4080025AC4200D1C8
:10406C0070BD56F8043B98470135F7E700520B003A
:10407C0024520B0000F021B808B500F023F8BDE87D
:10408C00084000F09DBD00F0D5B900F0DBB9007818
:10409C00B0FA80F0400970470123037070470EB4EA
:1040AC0003B503AB002153F8042B019300F0F9FB8B
:1040BC0002B05DF804EB03B070470121072000F05B
:1040CC0037BE000010B50121072000F042FE4FF46E
:1040DC00C87000F0D7F9094C0021072000F039FE18
:1040EC004FF4C87000F0CEF923680133236000F060
:1040FC00E1FC22680249FFF7D2FF10BDB4E60320B1
:10410C0010500B000021012000F010B908B5024B33
:10411C001B685B6C019308BD4802030008B5024B99
:10412C001B685B68019308BD1802030008B5024BBD
:10413C001B685B69019308BD1802030008B5024BAC
:10414C001B689B68019308BD2C02030008B5024B49
:10415C001B68DB68019308BD2C02030008B5024BF9
:10416C001B681B69019308BD2C02030008B5024BA8
:10417C001B681B6A019308BD2802030008B5024B9B
:10418C001B685B6A019308BD2802030008B5024B4B
:10419C001B689B6A019308BD2802030008B5024BFB
:1041AC001B68DB6A019308BD2802030008B5024BAB
:1041BC001B681B6B019308BD2802030008B5024B5A
:1041CC001B685B6B019308BD2802030008B5024B0A
:1041DC001B681B6C019308BD2802030008B5024B39
:1041EC001B685B69019308BD6402030008B5024BB0
:1041FC001B689B68019308BD6802030008B5024B5D
:10420C001B68DB68019308BD6802030008B5024B0C
:10421C001B68DB69019308BD3002030008B5024B33
:10422C001B681B6A019308BD3002030008B5024BE2
:10423C001B68DB68019308BD3C02030008B5024B08
:10424C001B681B69019308BD3C02030008B5024BB7
:10425C001B685B69019308BD3C02030008B5024B67
:10426C001B689B69019308BD3C02030008B5024B17
:10427C001B68DB69019308BD3C02030008B5024BC7
:10428C001B681B6A019308BD3C02030008B5024B76
:10429C001B689B6A019308BD3C02030008B5024BE6
:1042AC001B681B6C019308BD3C02030008B5024B54
:1042BC001B681B68019308BD4C02030008B5024B38
:1042CC001B681B69019308BD4C02030008B5024B27
:1042DC001B685B69019308BD4C02030008B5024BD7
:1042EC001B689B69019308BD4C02030008B5024B87
:1042FC001B68DB69019308BD4C02030008B5024B37
:10430C001B681B6A019308BD4C02030008B5024BE5
:10431C001B685B68019308BD2002030008B5024BC3
:10432C001B685B69019308BD2002030008B5024BB2
:10433C001B68DB6A019308BD2002030008B5034B20
:10434C001B68D3F88830019308BD000020020300DD
:10435C0008B5034B1B68D3F89430019308BD0000DB
:10436C002002030008B5024B1B68DB6B019308BDF0
:10437C004402030008B5024B1B685B68019308BD3F
:10438C004002030008B5024B1B689B68019308BDF3
:10439C004002030008B5024B1B68DB68019308BDA3
:1043AC004002030008B5024B1B681B69019308BD52
:1043BC004002030008B5024B1B685B69019308BD02
:1043CC004002030008B5024B1B689B69019308BDB2
:1043DC004002030008B5024B1B68DB69019308BD62
:1043EC004002030008B5024B1B681B6A019308BD11
:1043FC004002030008B5024B1B681B6B019308BD00
:10440C004002030008B5024B1B685B6B019308BDAF
:10441C004002030008B5024B1B681B6C019308BDDE
:10442C004002030008B5024B1B685B6C019308BD8E
:10443C004002030008B5024B1B681B68019308BDC2
:10444C001C02030008B5024B1B685B68019308BD96
:10445C001C02030008B5024B1B685B6A019308BD84
:10446C001C02030008B5024B1B681B6C019308BDB2
:10447C001C02030008B5024B1B685B6C019308BD62
:10448C001C0203000021FFF749BF00000248002373
:10449C000360FFF73BBE00BFB8E603200022406874
:1044AC001146FFF79FBF002240681146FFF7AABFD5
:1044BC0040680022FFF79EBF4068002281F0010196
:1044CC00FFF788BF002340681A461946FFF77ABFEA
:1044DC00002340681A461946FFF76CBF002240685B
:1044EC001146FFF75FBF002240681146FFF74ABF35
:1044FC00406800220221FFF74DBF002340681A4696
:10450C00FFF738BF024B03225A60024A1A60704709
:10451C00BCE6032024500B007047F8B50646154640
:10452C000C468F18BC4206D0336814F8011B9B68EC
:10453C0030469847F6E72846F8BD007C0022FFF786
:10454C0015BE007C0021FFF719BE007C0021FFF78F
:10455C001DBE007C0021FFF721BE007C0021FFF76F
:10456C0025BE10B514210446FFF78FFD204610BD63
:10457C0010B54FF47A73044608460021C4E90113C0
:10458C00034B236020741146FFF720FE204610BD1C
:10459C0060500B00704710B518210446FFF775FDED
:1045AC00204610BDF0B5037D062B8DB00E4600F1F4
:1045BC0004074FF0000412D000F1080515F8011D96
:1045CC000A22304600F04FF9AF42044419D0002CB7
:1045DC00F4D02E21304600F037F90444EEE72F23B7
:1045EC006A4639460A208DF80040FFF7F7FD684609
:1045FC0000F090FC33680246DB6869463046984709
:10460C00044620460DB0F0BD10B5054B04461122F2
:10461C0040F8043B002100F047FC204610BD00BFD1
:10462C0088500B000346074A10B543F8042B01F1E0
:10463C00100251F8044B43F8044B9142F9D10A781B
:10464C001A7010BD88500B0010B59DF8084044EA54
:10465C00032343EA024242EA0161042341600375E9
:10466C0010BD000007B5064B0360CB7800938B7828
:10467C004A780978FFF7E8FF03B05DF804FB00BF48
:10468C0088500B00014B024A1A607047C4E60320A5
:10469C0094500B00002340681A46FFF76BBE40682D
:1046AC0000220221FFF776BE002240681146FFF778
:1046BC0069BE002240681146FFF774BE00234068B3
:1046CC001A461946FFF776BE002340681A4619466B
:1046DC00FFF778BE40680021FFF79CBE40680021C0
:1046EC00FFF7A0BE4068002281F00101FFF772BE07
:1046FC0040680022FFF77EBE002240681146FFF79B
:10470C0081BE002240681146FFF76CBE2DE9F043D4
:10471C0095B014460D460746FFF776FF00211C2284
:10472C000DA8009100F0C0FB40230C9320466B4673
:10473C000CAA0021FFF762FD044600284BD102466B
:10474C0001216868FFF72EFE022180462246686828
:10475C00FFF728FE009E81462146002E3BD0002903
:10476C0039D17368022B03D00A2B11D0F669F4E708
:10477C00B8F1000FFAD0716906A8043107ADFFF744
:10478C0071FF0FCD3C1D0FC42B6823704146EDE724
:10479C00B9F1000FEAD07469102201A800F084FB73
:1047AC0006238DF8143001AD04F108031834186891
:1047BC0059682A4603C20833A3421546F7D101A90A
:1047CC0006A807ADFFF72EFF0FCD3C1D0FC42B68BD
:1047DC0023704946CAE70098FFF708FD384615B024
:1047EC00BDE8F083024B034A1A6000225A607047FE
:1047FC00C8E60320A0500B00F8B506460D468F18EE
:10480C000024BD420CD0336815F8011B9B68304660
:10481C009847031E01DB1C44F3E7002C08BF1C4621
:10482C002046F8BD13B50446084659B1019100F075
:10483C0071FB23680199DB680246204602B0BDE893
:10484C001040184702B010BD03689B68184738B574
:10485C000D210546FFF7F8FF0A2104462846FFF70D
:10486C00F3FF204438BD30B58BB00023012A8DF8FE
:10487C00243098BF0A2209AC0D46B1FBF2F101FBC2
:10488C00125303F0FF03092B94BF30333733DBB2E1
:10489C00AA4204F8013DEFD92146FFF7C3FF0BB044
:1048AC0030BD2DE9F04186B000AF05460E46381DEF
:1048BC00142114463B60FFF7CDFD13280ED8391D8B
:1048CC002846FFF7AFFF04461EB12846FFF7BFFF8F
:1048DC00044420461837BD46BDE8F08100F10803BA
:1048EC0023F00703E846ADEB030D2246411C3B6861
:1048FC006846FFF7AFFD69462846FFF793FF04466D
:10490C00C546E1E7014B00229A607047D0E60320D0
:10491C0010B5044608462170FFF778FC002363604D
:10492C00204610BD054B02221A60054B054A9A60C1
:10493C000020C3E90000FFF7E9BC00BFECE6032050
:10494C00E0E603200000FFFF024B1A68024B1A60DE
:10495C00704700BF48E60320F0E60320704741741F
:10496C00704708B5007CFFF791FC20EAE07008BDA9
:10497C0008B5007CFFF762FC20EAE07008BD08B5C2
:10498C00007CFFF76BFC40EAE07008BD08B5007CCA
:10499C00FFF75CFC40EAE07008BD007CFFF766BCEA
:1049AC0037B5457C04462DB1207C03B0BDE83040C2
:1049BC00FFF73CBC007C0191FFF768FC00280199D3
:1049CC00F2DC284603B030BD10B514210446FFF7C5
:1049DC005CFB204610BD000010B54FF47A73044602
:1049EC00084611460022C4E90123044B236001232D
:1049FC0020746374FFF752FC204610BDF8500B0076
:104A0C00417470477047704708B50021007CFFF770
:104A1C0065FC40EAE07008BD08B50121007CFFF799
:104A2C005DFC40EAE07008BD08B5007CFFF74EFC69
:104A3C0020EAE07008BD08B5007CFFF73FFC20EAD7
:104A4C00E07008BD13B50446007C0191FFF73EFCF5
:104A5C000028019901DC607C20B1207CFFF746FC2A
:104A6C0020EAE07002B010BD007CFFF747BC10B527
:104A7C0014210446FFF709FB204610BD10B54FF476
:104A8C007A73044608460021C4E90113044B2360E1
:104A9C000123207463741146FFF708FC204610BDF7
:104AAC0028510B0010B514220446002100F0FCF92B
:104ABC00204610BD10B50F4C88B003A8FFF7F2FFCD
:104ACC002178BFF35B8F11F001010FD120460191CA
:104ADC00FFF7DDFA019948B103AA0748FFF7CEFFAB
:104AEC002046FFF7D9FA054800F0CAF9024808B089
:104AFC0010BD00BFF4E60320F8E60320114A0B00BA
:104B0C00002240681146FFF74DBC00224068114658
:104B1C00FFF768BC002240681146FFF773BC406881
:104B2C000022FFF767BC4068002281F00101FFF70B
:104B3C0051BC002340681A461946FFF743BC0023BA
:104B4C0040681A461946FFF735BC002240681146EA
:104B5C00FFF718BC406800220221FFF71BBC0023A2
:104B6C0040681A46FFF706BC024B04225A60024A00
:104B7C001A6070470CE7032058510B00014B18606A
:104B8C00704700BF4CE6032008B50B4B43B1FFF751
:104B9C0091FF03681B699847002801DDAFF3008083
:104BAC00064B43B100F046F903681B69984700288F
:104BBC0001DDAFF3008008BD000000000000000024
:104BCC0008B5FFF7E1FFFFF7B1FA014B186008BD1C
:104BDC0028E703200548064A064908B5121A00F0D2
:104BEC0055F9054B054A1A6008BD00BF00F40320B7
:104BFC0004F4032054520B0000F403201E1C279ACB
:104C0C0007B5002300931A466FF07701FFF7A0FB5E
:104C1C0003B05DF804FB000007B543880A2B08D0ED
:104C2C00502B0BD1094B1B684BB103B05DF804EB57
:104C3C001847FFF7E5FF03B05DF804FB0023009372
:104C4C001A466FF07701FFF783FBF4E718E70320B0
:104C5C0010B512480021FFF70DFC114B1A68114BCF
:104C6C009A42114B0CBF012200221A7001D0FFF79F
:104C7C00B1FFFFF753FA044600F01EF90B4B13B1CA
:104C8C002046AFF3008000210848FFF76BFBBDE81E
:104C9C00104007480021FFF751BB00BF894B0B00A8
:104CAC0000F403201E1C279A14E7032000000000C8
:104CBC00254C0B00232813B502D9002002B010BDDF
:104CCC00A0F10B03022B1AD8174C2178BFF35B8F82
:104CDC0011F001010BD120460191FFF7D8F9019990
:104CEC0028B11248FFF714FE2046FFF7D5F90F4BF9
:104CFC001878FFF793FA0028DFD10120DEE70128AE
:104D0C0009D800F057F80021007CFFF757FA80F023
:104D1C000100C0B2D2E709380128EED800F08AF8B9
:104D2C00007CFFF7ABFAF2E71CE7032020E7032037
:104D3C00232838B504460D460AD8FF2908D0FFF7BA
:104D4C00B9FF28B129462046BDE83840FFF7F6B92F
:104D5C0038BD38B504460D46FFF7F8F9FF2810D0DA
:104D6C00062804D84D2323FA00F0C30709D42046A3
:104D7C00FFF7A0FF28B129462046BDE83840FFF7D1
:104D8C00EDB938BD7047000038B520251423044612
:104D9C000360856005610649284600F06FF80449F8
:104DAC006060284600F06AF8E060204638BD00BF1D
:104DBC008C510B0030B50E4D2978BFF35B8F11F081
:104DCC00010487B011D12846FFF761F968B101A839
:104DDC00FFF7DAFF01AA21460648FFF7C9FB284670
:104DEC00FFF75AF9044800F04BF8024807B030BD01
:104DFC002CE7032030E70320914D0B007047000097
:104E0C0038B5044614252A46002100F04DF82580BB
:104E1C004025074925812846258200F02FF80449B2
:104E2C006060284600F02AF8E060204638BD00BFDC
:104E3C008C510B0030B50E4D2978BFF35B8F11F000
:104E4C00010487B011D12846FFF721F968B101A8F8
:104E5C00FFF7D6FF01AA21460648FFF7BDFD2846FD
:104E6C00FFF71AF9044800F00BF8024807B030BD00
:104E7C0044E7032048E70320094E0B00FFF703B972
:104E8C00002301461A46184600F04CB80A449142D9
:104E9C0000F1FF3300D1704710B511F8014B03F846
:104EAC00014F9142F9D110BD02440346934200D107
:104EBC00704703F8011BF9E738B5104B1D68AB6B55
:104ECC000446B3B91820FFF7B5FA0246A86320B917
:104EDC000B4B0C484221FFF7C5FA0B490B4BC0E9B1
:104EEC0000130B4B83600B23838100210120C2E94B
:104EFC000401AB6B00221C615A6138BD4CE60320E7
:104F0C008D510B00A4510B000E33CDAB34126DE65A
:104F1C00ECDE0500034613F8012B002AFBD1181A0E
:104F2C00013870472DE9F843DFF8B8800646D8F809
:104F3C0000001F460D46914600F056F8254B1C68A4
:104F4C0034B9254C1C60254B13B11B68C4F8883050
:104F5C0063681F2B07DDD8F8000000F047F84FF00E
:104F6C00FF30BDE8F8834EB3D4F8880088B91C4BE9
:104F7C0023B9D8F8000000F038F8F0E74FF484704B
:104F8C00FFF758FA0028F4D00023C0E94033C4F8E6
:104F9C008800636840F8239001229A4000EB83015B
:104FAC00D0F800311343C0F80031022EC1F88070E4
:104FBC0002BFD0F804311343C0F804316368D8F849
:104FCC0000005A1C0233626044F8235000F00EF8C3
:104FDC000020C6E7E8E703205CE7032000000000A0
:104FEC0041440B00B0E60320704770477047000047
:104FFC001D400B0059400B0081400B0085400B00FD
:10500C0000000000436F756E743A202564000000A8
:10501C00000000000000000007450B00FD440B00E1
:10502C00F3440B00E9440B00DD440B00D1440B00AE
:10503C00E1460B00E9460B00C5440B00BD440B00D8
:10504C00B3440B00A9440B0019470B0000000000EF
:10505C000000000025450B006F450B0047450B0079
:10506C0027450B004F450B0057450B005F450B00C8
:10507C0067450B000000000000000000B1450B006C
:10508C00A1450B00A3450B006170700000000000EF
:10509C0000000000A1460B00AB460B00B5460B0010
:1050AC00BF460B00C9460B00D5460B00E1460B0072
:1050BC00E9460B00F1460B00FD460B0005470B00C3
:1050CC000F470B0019470B0025592D256D2D256415
:1050DC005425483A254D3A2553257A00617363745B
:1050EC00696D6500000000000000000069490B00BC
:1050FC00D5490B00AD490B0005480B007D490B0051
:10510C0099490B008B490B00A7490B006B490B000D
:10511C006F490B000000000000000000134A0B0058
:10512C007B4A0B00514A0B0005480B00434A0B000D
:10513C00154A0B00254A0B00754A0B00354A0B002B
:10514C000D4A0B0000000000000000006B4B0B0030
:10515C00614B0B00574B0B000D4B0B004B4B0B00DB
:10516C003F4B0B00E1460B00E9460B00334B0B00A9
:10517C002B4B0B00214B0B00174B0B0019470B0053
:10518C00005245454E54206D616C6C6F63207375F5
:10519C0063636565646564002F746D702F6A656E5A
:1051AC006B696E732D4743432D31302D70697065DB
:1051BC006C696E652D34385F3230323031313234B7
:1051CC005F313630363138303633392F7372632FC6
:1051DC006E65776C69622F6E65776C69622F6C698E
:1051EC0062632F7374646C69622F72616E642E63D8
:1051FC000000000011410B0099440B0011450B00FD
:10520C0091460B00F1470B0011490B0031490B0083
:10521C0055490B00754B0B0000000000000000000E
:04522C00000000007E
:10523000040000001400000003000000474E550069
:105240009D250D04B5DE8966F11065166C530F635C
:0452500059ACC43061
:045254000000000056
:10525800E8500B0050E603200000000000000000AA
:105268000000000000000000000000000000000036
:105278000000000000000000000000000000000026
:105288000000000000000000000000000000000016
:105298000000000000000000000000000000000006
:1052A80000000000000000000000000000000000F6
:0C52B8000000000000000000ECE70320F4
:1052C400FFFFFFFF00000102030405060708090AA7
:1052D4000B0C0D0E0F101112131415161718191AA2
:0852E4001B1C1D1E1F202800E9
:0452EC0078563412AA
:04000003B000401CED
:00000001FF
