:02000004080AE8
:1000000000000A0898110A08000006000600050111
:080010000402FD0800000000DD
:04001800840F0A083F
:10001C0009480A4908B5884205D0094A824202D0EB
:10002C00121A00F0FFFE0748074A0021121A00F0CE
:10003C0007FF064808BD00BF0000002004110A0895
:10004C006C0000206C000020DD010020DD01002090
:10005C0070B500F0EBFD0025054E064CA41BA40862
:10006C00A54200D170BD56F8043B98470135F7E71F
:10007C00DC100A08F8100A0800F023B808B500F0E4
:10008C0025F8BDE8084000F089BD00F0C5B900F0C6
:10009C00C3B900F0C9B90078B0FA80F040097047D4
:1000AC000123037070470EB403B503AB53F8042B54
:1000BC000021019300F03EFB02B05DF804EB03B0AD
:1000CC0070470121072000F02DBE000010B5012162
:1000DC00072000F038FE4FF4C87000F0BDF9094C51
:1000EC000021072000F02FFE4FF4C87000F0B4F987
:1000FC0023680133236000F06BFC22680249FFF790
:10010C00D2FF10BD6C000020980F0A0808B5024BF6
:10011C001B685B6C019308BDD001060808B5024B47
:10012C001B689B6C019308BDD001060808B5024BF7
:10013C001B685B68019308BD9C01060808B5024B5F
:10014C001B685B69019308BD9C01060808B5024B4E
:10015C001B689B68019308BDB001060808B5024BEB
:10016C001B68DB68019308BDB001060808B5024B9B
:10017C001B681B69019308BDB001060808B5024B4A
:10018C001B681B6E019308BDAC01060808B5024B39
:10019C001B685B6E019308BDAC01060808B5024BE9
:1001AC001B689B6E019308BDAC01060808B5024B99
:1001BC001B68DB6E019308BDAC01060808B5024B49
:1001CC001B681B6F019308BDAC01060808B5024BF8
:1001DC001B685B6F019308BDAC01060808B5034BA7
:1001EC001B68D3F88030019308BD0000AC010608F1
:1001FC0008B5024B1B68DB69019308BDB401060806
:10020C0008B5024B1B681B6A019308BDB4010608B4
:10021C0008B5024B1B689B69019308BDC401060815
:10022C0008B5024B1B685B6A019308BDC401060844
:10023C0008B5024B1B689B6A019308BDC4010608F4
:10024C0008B5024B1B68DB6A019308BDC4010608A4
:10025C0008B5024B1B681B6B019308BDC401060853
:10026C0008B5024B1B685B6B019308BDC401060803
:10027C0008B5024B1B689B6B019308BDC4010608B3
:10028C0008B5024B1B681B6C019308BDC401060822
:10029C0008B5024B1B681B68019308BDD801060802
:1002AC0008B5024B1B681B69019308BDD8010608F1
:1002BC0008B5024B1B685B69019308BDD8010608A1
:1002CC0008B5024B1B689B69019308BDD801060851
:1002DC0008B5024B1B68DB69019308BDD801060801
:1002EC0008B5024B1B681B6A019308BDD8010608B0
:1002FC0008B5024B1B689B6C019308BDC001060836
:10030C0008B5024B1B685B68019308BDA401060885
:10031C0008B5024B1B685B69019308BDA401060874
:10032C0008B5034B1B68D3F89030019308BD00004F
:10033C00A401060808B5034B1B68D3F89C30019345
:10034C0008BD0000A401060808B5024B1B68DB6B56
:10035C00019308BDCC01060808B5024B1B685B680D
:10036C00019308BDC801060808B5024B1B689B68C1
:10037C00019308BDC801060808B5024B1B68DB6871
:10038C00019308BDC801060808B5024B1B681B6920
:10039C00019308BDC801060808B5024B1B685B69D0
:1003AC00019308BDC801060808B5024B1B689B6980
:1003BC00019308BDC801060808B5024B1B68DB6930
:1003CC00019308BDC801060808B5024B1B681B6ADF
:1003DC00019308BDC801060808B5024B1B681B6BCE
:1003EC00019308BDC801060808B5024B1B685B6B7E
:1003FC00019308BDC801060808B5024B1B681B6CAD
:10040C00019308BDC801060808B5024B1B685B6C5C
:10041C00019308BDC801060808B5024B1B681B6890
:10042C00019308BDA001060808B5024B1B685B6868
:10043C00019308BDA001060808B5024B1B685B6A56
:10044C00019308BDA001060808B5024B1B685B6C44
:10045C00019308BDA00106080021FFF759BF7047A2
:10046C00F8B5064615460C468F18BC4206D03368C4
:10047C0030469B6814F8011B9847F6E72846F8BDF0
:10048C000022007CFFF77ABE0021007CFFF77EBEC5
:10049C000021007CFFF782BE0021007CFFF786BEA6
:1004AC000021007CFFF78ABE10B50446142100F031
:1004BC00AFFC204610BD000010B54FF47A73044613
:1004CC0008460021C4E90113034B11462360207434
:1004DC00FFF784FE204610BDAC0F0A08704710B51C
:1004EC000446182100F094FC204610BDF8B50E46C9
:1004FC00002400F10807051D17F8011D0A223046DB
:10050C0000F0FBF8AF42044401D12046F8BD002CAA
:10051C00F2D02E21304600F0E1F80444ECE7000064
:10052C0010B50446044B1122002140F8043B00F0A6
:10053C0087FC204610BD00BFD40F0A080346074AAB
:10054C0010B543F8042B01F1100251F8044B914201
:10055C0043F8044BF9D10A781A7010BDD40F0A086D
:10056C00024AC0E90021042202757047D40F0A0820
:10057C0010B59DF8084044EA0324042344EA0244DD
:10058C0044EA01644460037510BD000037B5044DA6
:10059C0005609DF818500095FFF7EAFF03B030BDD9
:1005AC00D40F0A08014B024A1A60704770000020F1
:1005BC00E00F0A08002340681A46FFF7CDBE002260
:1005CC0002214068FFF7D8BE002240681146FFF7B1
:1005DC00CBBE002240681146FFF7D6BE0023406810
:1005EC001A461946FFF7D8BE002340681A4619462A
:1005FC00FFF7DABE00214068FFF7FEBE002140681D
:10060C00FFF702BF0022406881F00101FFF7D4BE62
:10061C0000224068FFF7E0BE002240681146FFF759
:10062C00E3BE002240681146FFF7CEBE70B51546FA
:10063C008EB0044608A8FFF773FF1122002103A80F
:10064C0000F0FEFB0026284600F026FC0A4B009624
:10065C0081B25B68284603AAFFF74AFE30B13146E7
:10066C002046FFF77DFF20460EB070BD204603A943
:10067C00FFF764FFF7E700BFF0000020024B034ACE
:10068C001A6000225A60704774000020EC0F0A08B0
:10069C00F8B506460D4600248F18BD420CD03368C1
:1006AC0030469B6815F8011B9847031E01DB1C4460
:1006BC00F3E7002C08BF1C462046F8BD70B5054674
:1006CC000C46084649B100F0E7FB2B680246214670
:1006DC002846BDE87040DB68184770BD03689B680E
:1006EC00184738B50D210546FFF7F8FF0A210446D7
:1006FC002846FFF7F3FF204438BD0023012A98BF9A
:10070C000A2230B58BB00C468DF8243009A9254649
:10071C00B4FBF2F404FB1253DBB2092B94BF30335D
:10072C003733DBB2AA4201F8013DF0D9FFF7C6FF1F
:10073C000BB030BD2DE9F04186B000AF05460E463A
:10074C00381D142114463B60FFF776FE13280ED893
:10075C002846391DFFF7B2FF04461EB12846FFF7A5
:10076C00C0FF044420461837BD46BDE8F08100F1B7
:10077C00080323F00703E846ADEB030D2246411CAA
:10078C003B686846FFF758FE69462846FFF796FF18
:10079C000446C546E1E700000022014B9A60704711
:1007AC007C00002070B5002604460D4640F8086F0A
:1007BC00FFF7ACFC28462570FFF71AFD2046666053
:1007CC0070BD000002220020044B1A60044B054A45
:1007DC001860988098719A60FFF792BD980000207D
:1007EC008C0000200000FFFF024B1A68024B1A60BD
:1007FC00704700BF000000209C000020704741742F
:10080C007047704708B5007CFFF73AFD20EAE070AE
:10081C0008BD08B5007CFFF70BFD20EAE07008BDB1
:10082C0008B5007CFFF714FD40EAE07008BD08B580
:10083C00007CFFF705FD40EAE07008BD007CFFF787
:10084C000FBD70B5467C04460D462EB12946207C62
:10085C00BDE87040FFF7E4BC007CFFF711FD0028F9
:10086C00F4DC304670BD10B50446142100F0D0FA0B
:10087C00204610BD4FF0000C10B50446084611463A
:10088C004FF47A72C4E901C2044A20742260012236
:10089C0062741A46FFF7BCFC204610BD44100A08CF
:1008AC00F8B5194C26684EB98420FFF7EEFB0546C7
:1008BC0018B18422314600F0C3FA2560134D2F681D
:1008CC004FB98420FFF7E1FB064618B18422394664
:1008DC0000F0B6FA2E600E4F3978BFF35B8F11F033
:1008EC0001060FD13846FFF7D6FB58B131462B68BD
:1008FC0022680848FFF7BEFF3846FFF7D1FB0648D1
:10090C0000F08AFA0348F8BDA4000020A8000020DB
:10091C00A0000020AC0000200F080A0841747047AA
:10092C007047704708B50021007CFFF7C9FC40EA0E
:10093C00E07008BD08B50121007CFFF7C1FC40EA5E
:10094C00E07008BD08B5007CFFF7B2FC20EAE0704F
:10095C0008BD08B5007CFFF7A3FC20EAE07008BDD9
:10096C0038B50446007C0D46FFF7A2FC002801DCDC
:10097C00607C28B12946207CFFF7AAFC20EAE070B5
:10098C0038BD007CFFF7ACBC10B50446142100F058
:10099C003FFA204610BD704710B54FF47A730446E9
:1009AC0008460021C4E90113044B20742360012381
:1009BC0011466374FFF76CFC204610BD74100A08D6
:1009CC0010B504461422002100F03AFA204610BD5E
:1009DC0030B50E4D87B001A8FFF7F2FF2978BFF3B1
:1009EC005B8F11F001040ED12846FFF754FB50B178
:1009FC00214601AA0648FFF7CFFF2846FFF750FB18
:100A0C00044800F009FA024807B030BDC0000020CD
:100A1C00C80000202D090A0810B504461422002134
:100A2C0000F00EFA204610BD10B50E4C86B001A891
:100A3C00FFF7F2FF2378BFF35B8FDB070ED4204662
:100A4C00FFF729FB50B1012101AA0748FFF7A4FFCA
:100A5C002046FFF725FB054800F0DEF9024806B0FA
:100A6C0010BD00BFC4000020DC000020A3090A0850
:100A7C00002240681146FFF787BCF0B5154689B0D7
:100A8C0011220E460446002103A800F0D9F928468D
:100A9C0000F002FA002781B273682846009703AA77
:100AAC00FFF726FC30B139462046FFF759FD2046AA
:100ABC0009B0F0BD204603A9FFF740FDF7E700227F
:100ACC0040681146FFF780BC002240681146FFF7D2
:100ADC008BBC00224068FFF77FBC0022406881F08D
:100AEC000101FFF769BC002340681A461946FFF75D
:100AFC005BBC002340681A461946FFF74DBC002228
:100B0C0040681146FFF730BC002202214068FFF715
:100B1C0033BC002340681A46FFF71EBC0422024B6C
:100B2C005A60024A1A607047F0000020A4100A08AC
:100B3C00014B1860704700BF0400002008B5134B30
:100B4C0043B1FFF745FF03681B699847002801DD97
:100B5C00AFF300800E4B43B1FFF7A2FE03681B6995
:100B6C009847002801DDAFF300800A4B0BB1AFF3BF
:100B7C000080094B43B1FFF757FF03681B69984787
:100B8C00002801DDAFF3008008BD00BF00000000AD
:100B9C0000000000000000000000000008B5FFF796
:100BAC00CDFFFFF7CBFA014B186008BD10010020F8
:100BBC000548064A08B5121A054900F033F9054BE9
:100BCC00054A1A6008BD00BF0040024004400240C4
:100BDC0000110A08004002401E1C279A002307B58A
:100BEC001A466FF077010093FFF7A4FB03B05DF892
:100BFC0004FB000007B543880A2B08D0502B0BD1FF
:100C0C00094B1B684BB103B05DF804EB1847FFF7B9
:100C1C00E5FF03B05DF804FB00231A466FF0770183
:100C2C000093FFF787FBF4E7FC000020002110B5D0
:100C3C001148FFF709FC114B1A68114B9A420CBF73
:100C4C00012200220F4B1A7001D0FFF7B1FFFFF702
:100C5C006DFA044600F0FCF80B4B13B12046AFF3D1
:100C6C00008000210848FFF76FFBBDE81040002111
:100C7C000648FFF755BB00BF3D0B0A080040024079
:100C8C001E1C279AF800002000000000010C0A0826
:100C9C00024B986808B1FFF741BA70470401002075
:100CAC00172870B5044601D9002070BDA0F10D03C2
:100CBC00022B0BD9012824D800F078F80021007CF5
:100CCC00FFF784FA80F00100C0B2EEE7124E3178E3
:100CDC00BFF35B8F11F001050DD13046FFF7DBF947
:100CEC0048B129460D48FFF75DFD3046FFF7D8F9AE
:100CFC000B4800F091F8094B1878FFF781FA00289F
:100D0C00D2D1123C012C05D8FFF7CAFD007CFFF7AD
:100D1C00AFFAD7E70120C8E700010020040100204A
:100D2C009D0C0A08172838B504460D460AD8FF2929
:100D3C0008D0FFF7B5FF28B129462046BDE838405A
:100D4C00FFF704BA38BD38B504460D46FFF706FA6E
:100D5C00FF2810D0062804D84D2323FA00F0C3072F
:100D6C0009D42046FFF79CFF28B129462046BDE850
:100D7C003840FFF7FBB938BD70470000002370B551
:100D8C00202543801423084E044603803146856099
:100D9C000561284600F03EF831466060284600F0B8
:100DAC0039F8E060204670BDD8100A0830B50E4DF9
:100DBC0087B02978BFF35B8F11F0010411D128465D
:100DCC00FFF769F968B101A8FFF7D8FF214601AA1E
:100DDC000648FFF771FB2846FFF762F9044800F05C
:100DEC001BF8024807B030BD140100201801002088
:100DFC00850D0A08002307B51A46194600930348C7
:100E0C00FFF7C4FB03B05DF804FB00BF2C0100200E
:100E1C00FFF73FB9FFF73BB9002301461A461846C6
:100E2C0000F042B80A44914200F1FF3300D1704700
:100E3C0010B511F8014B914203F8014FF9D110BDD7
:100E4C0003460244934200D1704703F8011BF9E7B3
:100E5C0038B50D4B04461D68AB6B7BB91820FFF7FA
:100E6C00DBFA0A4A0A4BA863C0E90023094B0122AA
:100E7C0083600B2383810023C0E904230022AB6B26
:100E8C001C615A6138BD00BF040000200E33CDAB8D
:100E9C0034126DE6ECDE0500034613F8012B002A34
:100EAC00FBD1181A013870472DE9F843DFF8BC80E4
:100EBC000646D8F800001F460D46914600F058F83B
:100ECC00264B1C6834B9264C1C60264B13B11B688E
:100EDC00C4F8883063681F2B07DDD8F8000000F0D9
:100EEC0049F84FF0FF30BDE8F8835EB3D4F88800C2
:100EFC0088B91D4B23B9D8F8000000F03AF8F0E798
:100F0C004FF48470FFF788FA0028F4D00023C0E96E
:100F1C004033C4F8880001226368022E40F8239005
:100F2C0002FA03F200EB8301D0F8003143EA02032A
:100F3C00C0F80031C1F8807002BFD0F804311A43F8
:100F4C00C0F804216368D8F800005A1C02336260B0
:100F5C0044F8235000F00EF80020C4E7D001002024
:100F6C00440100200000000025040A08680000204D
:100F7C0070477047704700001D000A085D000A08A2
:100F8C0085000A0889000A0800000000436F756E8E
:100F9C00743A2025640000000000000000000000EE
:100FAC006B040A08B5040A088D040A086D040A08C3
:100FBC0095040A089D040A08A5040A08AD040A0849
:100FCC000000000000000000F9040A08E9040A0807
:100FDC00EB040A08617070000000000000000000C3
:100FEC00C1050A08CB050A08D5050A08DF050A0859
:100FFC00E9050A08F5050A0801060A0809060A089F
:10100C0011060A081D060A0825060A082F060A08F2
:10101C0039060A0825592D256D2D25645425483A85
:10102C00254D3A2553257A0061736374696D65000B
:10103C00000000000000000009080A0873080A08F4
:10104C004F080A089D060A081F080A083B080A08E8
:10105C002D080A0849080A080B080A0811080A088A
:10106C0000000000000000002F090A0895090A087A
:10107C006D090A089D060A085F090A0831090A0861
:10108C0041090A088F090A0851090A0829090A089E
:10109C0000000000000000001F0B0A08150B0A08D6
:1010AC000B0B0A087D0A0A08FF0A0A08F30A0A0849
:1010BC0001060A0809060A08E70A0A08DF0A0A08EC
:1010CC00D50A0A08CB0A0A08870A0A080000000099
:1010DC00B1050A0889060A08A5070A08D1070A08F3
:1010EC00F5070A08290B0A08010E0A08000000007F
:0410FC0000000000F0
:0411000000000000EB
:1011040034100A080800002000000000000000005D
:1011140000000000000000000000000000000000CB
:1011240000000000000000000000000000000000BB
:1011340000000000000000000000000000000000AB
:10114400000000000000000000000000000000009B
:10115400000000000000000000000000000000008B
:0C1164000000000000000000D501002089
:10117000FFFFFFFF00000102030405060708090A3C
:101180000B0C0D0E0F101112131415161718191A37
:081190001B1C1D1E1F2028007E
:04119800785634123F
:04000005080A001CC9
:00000001FF
